{
  "contractName": "TeenDoge",
  "abi": [
    {
      "inputs": [],
      "stateMutability": "nonpayable",
      "type": "constructor"
    },
    {
      "anonymous": false,
      "inputs": [
        {
          "indexed": true,
          "internalType": "address",
          "name": "owner",
          "type": "address"
        },
        {
          "indexed": true,
          "internalType": "address",
          "name": "spender",
          "type": "address"
        },
        {
          "indexed": false,
          "internalType": "uint256",
          "name": "value",
          "type": "uint256"
        }
      ],
      "name": "Approval",
      "type": "event"
    },
    {
      "anonymous": false,
      "inputs": [
        {
          "indexed": false,
          "internalType": "address",
          "name": "spender",
          "type": "address"
        },
        {
          "indexed": false,
          "internalType": "uint256",
          "name": "burnFee",
          "type": "uint256"
        },
        {
          "indexed": false,
          "internalType": "uint256",
          "name": "liquidityFee",
          "type": "uint256"
        }
      ],
      "name": "BurnAndLiquidityFee",
      "type": "event"
    },
    {
      "anonymous": false,
      "inputs": [
        {
          "indexed": false,
          "internalType": "address",
          "name": "routerAddress",
          "type": "address"
        },
        {
          "indexed": false,
          "internalType": "address",
          "name": "pairAddress",
          "type": "address"
        }
      ],
      "name": "NewExchangeAdded",
      "type": "event"
    },
    {
      "anonymous": false,
      "inputs": [
        {
          "indexed": true,
          "internalType": "address",
          "name": "previousOwner",
          "type": "address"
        },
        {
          "indexed": true,
          "internalType": "address",
          "name": "newOwner",
          "type": "address"
        }
      ],
      "name": "OwnershipTransferred",
      "type": "event"
    },
    {
      "anonymous": false,
      "inputs": [
        {
          "indexed": true,
          "internalType": "address",
          "name": "from",
          "type": "address"
        },
        {
          "indexed": true,
          "internalType": "address",
          "name": "to",
          "type": "address"
        },
        {
          "indexed": false,
          "internalType": "uint256",
          "name": "value",
          "type": "uint256"
        }
      ],
      "name": "Transfer",
      "type": "event"
    },
    {
      "inputs": [
        {
          "internalType": "address",
          "name": "owner",
          "type": "address"
        },
        {
          "internalType": "address",
          "name": "spender",
          "type": "address"
        }
      ],
      "name": "allowance",
      "outputs": [
        {
          "internalType": "uint256",
          "name": "",
          "type": "uint256"
        }
      ],
      "stateMutability": "view",
      "type": "function"
    },
    {
      "inputs": [
        {
          "internalType": "address",
          "name": "spender",
          "type": "address"
        },
        {
          "internalType": "uint256",
          "name": "amount",
          "type": "uint256"
        }
      ],
      "name": "approve",
      "outputs": [
        {
          "internalType": "bool",
          "name": "",
          "type": "bool"
        }
      ],
      "stateMutability": "nonpayable",
      "type": "function"
    },
    {
      "inputs": [
        {
          "internalType": "address",
          "name": "account",
          "type": "address"
        }
      ],
      "name": "balanceOf",
      "outputs": [
        {
          "internalType": "uint256",
          "name": "",
          "type": "uint256"
        }
      ],
      "stateMutability": "view",
      "type": "function"
    },
    {
      "inputs": [],
      "name": "burnFee",
      "outputs": [
        {
          "internalType": "uint256",
          "name": "",
          "type": "uint256"
        }
      ],
      "stateMutability": "view",
      "type": "function"
    },
    {
      "inputs": [],
      "name": "decimals",
      "outputs": [
        {
          "internalType": "uint8",
          "name": "",
          "type": "uint8"
        }
      ],
      "stateMutability": "view",
      "type": "function"
    },
    {
      "inputs": [
        {
          "internalType": "address",
          "name": "spender",
          "type": "address"
        },
        {
          "internalType": "uint256",
          "name": "subtractedValue",
          "type": "uint256"
        }
      ],
      "name": "decreaseAllowance",
      "outputs": [
        {
          "internalType": "bool",
          "name": "",
          "type": "bool"
        }
      ],
      "stateMutability": "nonpayable",
      "type": "function"
    },
    {
      "inputs": [],
      "name": "feeDivider",
      "outputs": [
        {
          "internalType": "uint256",
          "name": "",
          "type": "uint256"
        }
      ],
      "stateMutability": "view",
      "type": "function"
    },
    {
      "inputs": [
        {
          "internalType": "address",
          "name": "spender",
          "type": "address"
        },
        {
          "internalType": "uint256",
          "name": "addedValue",
          "type": "uint256"
        }
      ],
      "name": "increaseAllowance",
      "outputs": [
        {
          "internalType": "bool",
          "name": "",
          "type": "bool"
        }
      ],
      "stateMutability": "nonpayable",
      "type": "function"
    },
    {
      "inputs": [],
      "name": "isFeesEnabled",
      "outputs": [
        {
          "internalType": "bool",
          "name": "",
          "type": "bool"
        }
      ],
      "stateMutability": "view",
      "type": "function"
    },
    {
      "inputs": [
        {
          "internalType": "address",
          "name": "",
          "type": "address"
        }
      ],
      "name": "isValidPair",
      "outputs": [
        {
          "internalType": "bool",
          "name": "",
          "type": "bool"
        }
      ],
      "stateMutability": "view",
      "type": "function"
    },
    {
      "inputs": [
        {
          "internalType": "address",
          "name": "",
          "type": "address"
        }
      ],
      "name": "isValidRouter",
      "outputs": [
        {
          "internalType": "bool",
          "name": "",
          "type": "bool"
        }
      ],
      "stateMutability": "view",
      "type": "function"
    },
    {
      "inputs": [],
      "name": "liquidityFee",
      "outputs": [
        {
          "internalType": "uint256",
          "name": "",
          "type": "uint256"
        }
      ],
      "stateMutability": "view",
      "type": "function"
    },
    {
      "inputs": [],
      "name": "name",
      "outputs": [
        {
          "internalType": "string",
          "name": "",
          "type": "string"
        }
      ],
      "stateMutability": "view",
      "type": "function"
    },
    {
      "inputs": [],
      "name": "owner",
      "outputs": [
        {
          "internalType": "address",
          "name": "",
          "type": "address"
        }
      ],
      "stateMutability": "view",
      "type": "function"
    },
    {
      "inputs": [],
      "name": "renounceOwnership",
      "outputs": [],
      "stateMutability": "nonpayable",
      "type": "function"
    },
    {
      "inputs": [
        {
          "internalType": "uint256",
          "name": "",
          "type": "uint256"
        }
      ],
      "name": "routers",
      "outputs": [
        {
          "internalType": "address",
          "name": "",
          "type": "address"
        }
      ],
      "stateMutability": "view",
      "type": "function"
    },
    {
      "inputs": [],
      "name": "symbol",
      "outputs": [
        {
          "internalType": "string",
          "name": "",
          "type": "string"
        }
      ],
      "stateMutability": "view",
      "type": "function"
    },
    {
      "inputs": [],
      "name": "totalSupply",
      "outputs": [
        {
          "internalType": "uint256",
          "name": "",
          "type": "uint256"
        }
      ],
      "stateMutability": "view",
      "type": "function"
    },
    {
      "inputs": [
        {
          "internalType": "address",
          "name": "recipient",
          "type": "address"
        },
        {
          "internalType": "uint256",
          "name": "amount",
          "type": "uint256"
        }
      ],
      "name": "transfer",
      "outputs": [
        {
          "internalType": "bool",
          "name": "",
          "type": "bool"
        }
      ],
      "stateMutability": "nonpayable",
      "type": "function"
    },
    {
      "inputs": [
        {
          "internalType": "address",
          "name": "newOwner",
          "type": "address"
        }
      ],
      "name": "transferOwnership",
      "outputs": [],
      "stateMutability": "nonpayable",
      "type": "function"
    },
    {
      "inputs": [
        {
          "internalType": "address",
          "name": "sender",
          "type": "address"
        },
        {
          "internalType": "address",
          "name": "recipient",
          "type": "address"
        },
        {
          "internalType": "uint256",
          "name": "amount",
          "type": "uint256"
        }
      ],
      "name": "transferFrom",
      "outputs": [
        {
          "internalType": "bool",
          "name": "",
          "type": "bool"
        }
      ],
      "stateMutability": "nonpayable",
      "type": "function"
    },
    {
      "inputs": [
        {
          "internalType": "uint256",
          "name": "_bFee",
          "type": "uint256"
        },
        {
          "internalType": "uint256",
          "name": "_lFee",
          "type": "uint256"
        },
        {
          "internalType": "uint256",
          "name": "_fDivider",
          "type": "uint256"
        }
      ],
      "name": "setFees",
      "outputs": [],
      "stateMutability": "nonpayable",
      "type": "function"
    },
    {
      "inputs": [
        {
          "internalType": "bool",
          "name": "val",
          "type": "bool"
        }
      ],
      "name": "setFeesEnabled",
      "outputs": [],
      "stateMutability": "nonpayable",
      "type": "function"
    },
    {
      "inputs": [
        {
          "internalType": "address",
          "name": "_routerAddress",
          "type": "address"
        }
      ],
      "name": "addARouter",
      "outputs": [],
      "stateMutability": "nonpayable",
      "type": "function"
    },
    {
      "inputs": [
        {
          "internalType": "uint256",
          "name": "_index",
          "type": "uint256"
        }
      ],
      "name": "getPairs",
      "outputs": [
        {
          "internalType": "address",
          "name": "",
          "type": "address"
        }
      ],
      "stateMutability": "view",
      "type": "function"
    }
  ],
  "bytecode": "0x60806040526000600560146101000a81548160ff021916908315150217905550607d600955607d600a556064600b553480156200003b57600080fd5b506040518060400160405280600881526020017f5465656e446f67650000000000000000000000000000000000000000000000008152506040518060400160405280600581526020017f54444f47450000000000000000000000000000000000000000000000000000008152508160039080519060200190620000c09291906200097a565b508060049080519060200190620000d99291906200097a565b5050506000620000ee620001fb60201b60201c565b905080600560006101000a81548173ffffffffffffffffffffffffffffffffffffffff021916908373ffffffffffffffffffffffffffffffffffffffff1602179055508073ffffffffffffffffffffffffffffffffffffffff16600073ffffffffffffffffffffffffffffffffffffffff167f8be0079c531659141344cd1fd0a4f28419497f9722a3daafe3b4186f6b6457e060405160405180910390a350620001d033620001a26200020360201b60201c565b60ff16600a620001b3919062000d32565b6305f5e100620001c4919062000e6f565b6200020c60201b60201c565b620001f5739ac64cc6e4415144c455bd8e4837fea55603e5c36200037160201b60201c565b62000fc9565b600033905090565b60006012905090565b600073ffffffffffffffffffffffffffffffffffffffff168273ffffffffffffffffffffffffffffffffffffffff1614156200027f576040517f08c379a0000000000000000000000000000000000000000000000000000000008152600401620002769062000c2a565b60405180910390fd5b62000293600083836200094b60201b60201c565b8060026000828254620002a7919062000c7a565b92505081905550806000808473ffffffffffffffffffffffffffffffffffffffff1673ffffffffffffffffffffffffffffffffffffffff1681526020019081526020016000206000828254620002fe919062000c7a565b925050819055508173ffffffffffffffffffffffffffffffffffffffff16600073ffffffffffffffffffffffffffffffffffffffff167fddf252ad1be2c89b69c2b068fc378daa952ba7f163c4a11628f55a4df523b3ef8360405162000365919062000c4c565b60405180910390a35050565b62000381620001fb60201b60201c565b73ffffffffffffffffffffffffffffffffffffffff16620003a76200095060201b60201c565b73ffffffffffffffffffffffffffffffffffffffff161462000400576040517f08c379a0000000000000000000000000000000000000000000000000000000008152600401620003f79062000be6565b60405180910390fd5b600073ffffffffffffffffffffffffffffffffffffffff168173ffffffffffffffffffffffffffffffffffffffff16141562000473576040517f08c379a00000000000000000000000000000000000000000000000000000000081526004016200046a9062000c08565b60405180910390fd5b600760008273ffffffffffffffffffffffffffffffffffffffff1673ffffffffffffffffffffffffffffffffffffffff16815260200190815260200160002060009054906101000a900460ff161562000503576040517f08c379a0000000000000000000000000000000000000000000000000000000008152600401620004fa9062000bc4565b60405180910390fd5b600081905060008173ffffffffffffffffffffffffffffffffffffffff1663c45a01556040518163ffffffff1660e01b815260040160206040518083038186803b1580156200055157600080fd5b505afa15801562000566573d6000803e3d6000fd5b505050506040513d601f19601f820116820180604052508101906200058c919062000a41565b905060008173ffffffffffffffffffffffffffffffffffffffff1663e6a43905308573ffffffffffffffffffffffffffffffffffffffff1663ad5c46486040518163ffffffff1660e01b815260040160206040518083038186803b158015620005f457600080fd5b505afa15801562000609573d6000803e3d6000fd5b505050506040513d601f19601f820116820180604052508101906200062f919062000a41565b6040518363ffffffff1660e01b81526004016200064e92919062000b97565b60206040518083038186803b1580156200066757600080fd5b505afa1580156200067c573d6000803e3d6000fd5b505050506040513d601f19601f82011682018060405250810190620006a2919062000a41565b9050600073ffffffffffffffffffffffffffffffffffffffff168173ffffffffffffffffffffffffffffffffffffffff161415620007f1578173ffffffffffffffffffffffffffffffffffffffff1663c9c65396308573ffffffffffffffffffffffffffffffffffffffff1663ad5c46486040518163ffffffff1660e01b815260040160206040518083038186803b1580156200073e57600080fd5b505afa15801562000753573d6000803e3d6000fd5b505050506040513d601f19601f8201168201806040525081019062000779919062000a41565b6040518363ffffffff1660e01b81526004016200079892919062000b97565b602060405180830381600087803b158015620007b357600080fd5b505af1158015620007c8573d6000803e3d6000fd5b505050506040513d601f19601f82011682018060405250810190620007ee919062000a41565b90505b60008190506006859080600181540180825580915050600190039060005260206000200160009091909190916101000a81548173ffffffffffffffffffffffffffffffffffffffff021916908373ffffffffffffffffffffffffffffffffffffffff1602179055506001600760008673ffffffffffffffffffffffffffffffffffffffff1673ffffffffffffffffffffffffffffffffffffffff16815260200190815260200160002060006101000a81548160ff0219169083151502179055506001600860008373ffffffffffffffffffffffffffffffffffffffff1673ffffffffffffffffffffffffffffffffffffffff16815260200190815260200160002060006101000a81548160ff0219169083151502179055507f51daf28b39476ae2b76a5a9de8218bcbfaa10984e5906a5bf85ff789803a0ecb85826040516200093c92919062000b97565b60405180910390a15050505050565b505050565b6000600560009054906101000a900473ffffffffffffffffffffffffffffffffffffffff16905090565b828054620009889062000f0e565b90600052602060002090601f016020900481019282620009ac5760008555620009f8565b82601f10620009c757805160ff1916838001178555620009f8565b82800160010185558215620009f8579182015b82811115620009f7578251825591602001919060010190620009da565b5b50905062000a07919062000a0b565b5090565b5b8082111562000a2657600081600090555060010162000a0c565b5090565b60008151905062000a3b8162000faf565b92915050565b60006020828403121562000a5457600080fd5b600062000a648482850162000a2a565b91505092915050565b62000a788162000ed0565b82525050565b600062000a8d60108362000c69565b91507f497320416c7265616479204164646564000000000000000000000000000000006000830152602082019050919050565b600062000acf60208362000c69565b91507f4f776e61626c653a2063616c6c6572206973206e6f7420746865206f776e65726000830152602082019050919050565b600062000b11601e8362000c69565b91507f526f757465722043616e27742042652041205a65726f204164647265737300006000830152602082019050919050565b600062000b53601f8362000c69565b91507f45524332303a206d696e7420746f20746865207a65726f2061646472657373006000830152602082019050919050565b62000b918162000f04565b82525050565b600060408201905062000bae600083018562000a6d565b62000bbd602083018462000a6d565b9392505050565b6000602082019050818103600083015262000bdf8162000a7e565b9050919050565b6000602082019050818103600083015262000c018162000ac0565b9050919050565b6000602082019050818103600083015262000c238162000b02565b9050919050565b6000602082019050818103600083015262000c458162000b44565b9050919050565b600060208201905062000c63600083018462000b86565b92915050565b600082825260208201905092915050565b600062000c878262000f04565b915062000c948362000f04565b9250827fffffffffffffffffffffffffffffffffffffffffffffffffffffffffffffffff0382111562000ccc5762000ccb62000f44565b5b828201905092915050565b6000808291508390505b600185111562000d295780860481111562000d015762000d0062000f44565b5b600185161562000d115780820291505b808102905062000d218562000fa2565b945062000ce1565b94509492505050565b600062000d3f8262000f04565b915062000d4c8362000f04565b925062000d7b7fffffffffffffffffffffffffffffffffffffffffffffffffffffffffffffffff848462000d83565b905092915050565b60008262000d95576001905062000e68565b8162000da5576000905062000e68565b816001811462000dbe576002811462000dc95762000dff565b600191505062000e68565b60ff84111562000dde5762000ddd62000f44565b5b8360020a91508482111562000df85762000df762000f44565b5b5062000e68565b5060208310610133831016604e8410600b841016171562000e395782820a90508381111562000e335762000e3262000f44565b5b62000e68565b62000e48848484600162000cd7565b9250905081840481111562000e625762000e6162000f44565b5b81810290505b9392505050565b600062000e7c8262000f04565b915062000e898362000f04565b9250817fffffffffffffffffffffffffffffffffffffffffffffffffffffffffffffffff048311821515161562000ec55762000ec462000f44565b5b828202905092915050565b600062000edd8262000ee4565b9050919050565b600073ffffffffffffffffffffffffffffffffffffffff82169050919050565b6000819050919050565b6000600282049050600182168062000f2757607f821691505b6020821081141562000f3e5762000f3d62000f73565b5b50919050565b7f4e487b7100000000000000000000000000000000000000000000000000000000600052601160045260246000fd5b7f4e487b7100000000000000000000000000000000000000000000000000000000600052602260045260246000fd5b60008160011c9050919050565b62000fba8162000ed0565b811462000fc657600080fd5b50565b612e438062000fd96000396000f3fe608060405234801561001057600080fd5b50600436106101735760003560e01c80639294118c116100de578063a9059cbb11610097578063cec10c1111610071578063cec10c111461048a578063dd62ed3e146104a6578063f2fde38b146104d6578063fce589d8146104f257610173565b8063a9059cbb1461040c578063a99266471461043c578063bd5882dc1461046c57610173565b80639294118c1461033857806395d89b411461036857806398118cb4146103865780639c4f7632146103a4578063a457c2d7146103c0578063a901dd92146103f057610173565b80634e9c1118116101305780634e9c11181461026257806370a0823114610292578063715018a6146102c25780638d0849f1146102cc5780638da5cb5b146102fc578063917b546c1461031a57610173565b806306fdde0314610178578063095ea7b31461019657806318160ddd146101c657806323b872dd146101e4578063313ce567146102145780633950935114610232575b600080fd5b610180610510565b60405161018d9190612907565b60405180910390f35b6101b060048036038101906101ab91906121e3565b6105a2565b6040516101bd91906128ec565b60405180910390f35b6101ce6105c0565b6040516101db9190612b09565b60405180910390f35b6101fe60048036038101906101f99190612194565b6105ca565b60405161020b91906128ec565b60405180910390f35b61021c610671565b6040516102299190612b24565b60405180910390f35b61024c600480360381019061024791906121e3565b61067a565b60405161025991906128ec565b60405180910390f35b61027c60048036038101906102779190612248565b610726565b6040516102899190612871565b60405180910390f35b6102ac60048036038101906102a79190612106565b610765565b6040516102b99190612b09565b60405180910390f35b6102ca6107ad565b005b6102e660048036038101906102e19190612248565b6108ea565b6040516102f39190612871565b60405180910390f35b610304610b29565b6040516103119190612871565b60405180910390f35b610322610b53565b60405161032f9190612b09565b60405180910390f35b610352600480360381019061034d9190612106565b610b59565b60405161035f91906128ec565b60405180910390f35b610370610b79565b60405161037d9190612907565b60405180910390f35b61038e610c0b565b60405161039b9190612b09565b60405180910390f35b6103be60048036038101906103b99190612106565b610c11565b005b6103da60048036038101906103d591906121e3565b6111b7565b6040516103e791906128ec565b60405180910390f35b61040a6004803603810190610405919061221f565b6112ab565b005b610426600480360381019061042191906121e3565b611344565b60405161043391906128ec565b60405180910390f35b61045660048036038101906104519190612106565b611362565b60405161046391906128ec565b60405180910390f35b610474611382565b60405161048191906128ec565b60405180910390f35b6104a4600480360381019061049f9190612271565b611395565b005b6104c060048036038101906104bb9190612158565b61142b565b6040516104cd9190612b09565b60405180910390f35b6104f060048036038101906104eb9190612106565b6114b2565b005b6104fa61165e565b6040516105079190612b09565b60405180910390f35b60606003805461051f90612cf8565b80601f016020809104026020016040519081016040528092919081815260200182805461054b90612cf8565b80156105985780601f1061056d57610100808354040283529160200191610598565b820191906000526020600020905b81548152906001019060200180831161057b57829003601f168201915b5050505050905090565b60006105b66105af611664565b848461166c565b6001905092915050565b6000600254905090565b6000600560149054906101000a900460ff1680156106315750600860008473ffffffffffffffffffffffffffffffffffffffff1673ffffffffffffffffffffffffffffffffffffffff16815260200190815260200160002060009054906101000a900460ff165b1561065d5760008061064284611837565b80935081945082965050505061065a868684846118e6565b50505b6106688484846119ad565b90509392505050565b60006012905090565b600061071c610687611664565b848460016000610695611664565b73ffffffffffffffffffffffffffffffffffffffff1673ffffffffffffffffffffffffffffffffffffffff16815260200190815260200160002060008873ffffffffffffffffffffffffffffffffffffffff1673ffffffffffffffffffffffffffffffffffffffff168152602001908152602001600020546107179190612b5b565b61166c565b6001905092915050565b6006818154811061073657600080fd5b906000526020600020016000915054906101000a900473ffffffffffffffffffffffffffffffffffffffff1681565b60008060008373ffffffffffffffffffffffffffffffffffffffff1673ffffffffffffffffffffffffffffffffffffffff168152602001908152602001600020549050919050565b6107b5611664565b73ffffffffffffffffffffffffffffffffffffffff166107d3610b29565b73ffffffffffffffffffffffffffffffffffffffff1614610829576040517f08c379a000000000000000000000000000000000000000000000000000000000815260040161082090612a09565b60405180910390fd5b600073ffffffffffffffffffffffffffffffffffffffff16600560009054906101000a900473ffffffffffffffffffffffffffffffffffffffff1673ffffffffffffffffffffffffffffffffffffffff167f8be0079c531659141344cd1fd0a4f28419497f9722a3daafe3b4186f6b6457e060405160405180910390a36000600560006101000a81548173ffffffffffffffffffffffffffffffffffffffff021916908373ffffffffffffffffffffffffffffffffffffffff160217905550565b60006006805490508210610933576040517f08c379a000000000000000000000000000000000000000000000000000000000815260040161092a90612ac9565b60405180910390fd5b60006006838154811061096f577f4e487b7100000000000000000000000000000000000000000000000000000000600052603260045260246000fd5b9060005260206000200160009054906101000a900473ffffffffffffffffffffffffffffffffffffffff1690508073ffffffffffffffffffffffffffffffffffffffff1663c45a01556040518163ffffffff1660e01b815260040160206040518083038186803b1580156109e257600080fd5b505afa1580156109f6573d6000803e3d6000fd5b505050506040513d601f19601f82011682018060405250810190610a1a919061212f565b73ffffffffffffffffffffffffffffffffffffffff1663e6a43905308373ffffffffffffffffffffffffffffffffffffffff1663ad5c46486040518163ffffffff1660e01b815260040160206040518083038186803b158015610a7c57600080fd5b505afa158015610a90573d6000803e3d6000fd5b505050506040513d601f19601f82011682018060405250810190610ab4919061212f565b6040518363ffffffff1660e01b8152600401610ad192919061288c565b60206040518083038186803b158015610ae957600080fd5b505afa158015610afd573d6000803e3d6000fd5b505050506040513d601f19601f82011682018060405250810190610b21919061212f565b915050919050565b6000600560009054906101000a900473ffffffffffffffffffffffffffffffffffffffff16905090565b600b5481565b60086020528060005260406000206000915054906101000a900460ff1681565b606060048054610b8890612cf8565b80601f0160208091040260200160405190810160405280929190818152602001828054610bb490612cf8565b8015610c015780601f10610bd657610100808354040283529160200191610c01565b820191906000526020600020905b815481529060010190602001808311610be457829003601f168201915b5050505050905090565b600a5481565b610c19611664565b73ffffffffffffffffffffffffffffffffffffffff16610c37610b29565b73ffffffffffffffffffffffffffffffffffffffff1614610c8d576040517f08c379a0000000000000000000000000000000000000000000000000000000008152600401610c8490612a09565b60405180910390fd5b600073ffffffffffffffffffffffffffffffffffffffff168173ffffffffffffffffffffffffffffffffffffffff161415610cfd576040517f08c379a0000000000000000000000000000000000000000000000000000000008152600401610cf490612a29565b60405180910390fd5b600760008273ffffffffffffffffffffffffffffffffffffffff1673ffffffffffffffffffffffffffffffffffffffff16815260200190815260200160002060009054906101000a900460ff1615610d8a576040517f08c379a0000000000000000000000000000000000000000000000000000000008152600401610d81906129a9565b60405180910390fd5b600081905060008173ffffffffffffffffffffffffffffffffffffffff1663c45a01556040518163ffffffff1660e01b815260040160206040518083038186803b158015610dd757600080fd5b505afa158015610deb573d6000803e3d6000fd5b505050506040513d601f19601f82011682018060405250810190610e0f919061212f565b905060008173ffffffffffffffffffffffffffffffffffffffff1663e6a43905308573ffffffffffffffffffffffffffffffffffffffff1663ad5c46486040518163ffffffff1660e01b815260040160206040518083038186803b158015610e7657600080fd5b505afa158015610e8a573d6000803e3d6000fd5b505050506040513d601f19601f82011682018060405250810190610eae919061212f565b6040518363ffffffff1660e01b8152600401610ecb92919061288c565b60206040518083038186803b158015610ee357600080fd5b505afa158015610ef7573d6000803e3d6000fd5b505050506040513d601f19601f82011682018060405250810190610f1b919061212f565b9050600073ffffffffffffffffffffffffffffffffffffffff168173ffffffffffffffffffffffffffffffffffffffff16141561105f578173ffffffffffffffffffffffffffffffffffffffff1663c9c65396308573ffffffffffffffffffffffffffffffffffffffff1663ad5c46486040518163ffffffff1660e01b815260040160206040518083038186803b158015610fb557600080fd5b505afa158015610fc9573d6000803e3d6000fd5b505050506040513d601f19601f82011682018060405250810190610fed919061212f565b6040518363ffffffff1660e01b815260040161100a92919061288c565b602060405180830381600087803b15801561102457600080fd5b505af1158015611038573d6000803e3d6000fd5b505050506040513d601f19601f8201168201806040525081019061105c919061212f565b90505b60008190506006859080600181540180825580915050600190039060005260206000200160009091909190916101000a81548173ffffffffffffffffffffffffffffffffffffffff021916908373ffffffffffffffffffffffffffffffffffffffff1602179055506001600760008673ffffffffffffffffffffffffffffffffffffffff1673ffffffffffffffffffffffffffffffffffffffff16815260200190815260200160002060006101000a81548160ff0219169083151502179055506001600860008373ffffffffffffffffffffffffffffffffffffffff1673ffffffffffffffffffffffffffffffffffffffff16815260200190815260200160002060006101000a81548160ff0219169083151502179055507f51daf28b39476ae2b76a5a9de8218bcbfaa10984e5906a5bf85ff789803a0ecb85826040516111a892919061288c565b60405180910390a15050505050565b600080600160006111c6611664565b73ffffffffffffffffffffffffffffffffffffffff1673ffffffffffffffffffffffffffffffffffffffff16815260200190815260200160002060008573ffffffffffffffffffffffffffffffffffffffff1673ffffffffffffffffffffffffffffffffffffffff16815260200190815260200160002054905082811015611283576040517f08c379a000000000000000000000000000000000000000000000000000000000815260040161127a90612aa9565b60405180910390fd5b6112a061128e611664565b85858461129b9190612c3c565b61166c565b600191505092915050565b6112b3611664565b73ffffffffffffffffffffffffffffffffffffffff166112d1610b29565b73ffffffffffffffffffffffffffffffffffffffff1614611327576040517f08c379a000000000000000000000000000000000000000000000000000000000815260040161131e90612a09565b60405180910390fd5b80600560146101000a81548160ff02191690831515021790555050565b6000611358611351611664565b8484611aae565b6001905092915050565b60076020528060005260406000206000915054906101000a900460ff1681565b600560149054906101000a900460ff1681565b61139d611664565b73ffffffffffffffffffffffffffffffffffffffff166113bb610b29565b73ffffffffffffffffffffffffffffffffffffffff1614611411576040517f08c379a000000000000000000000000000000000000000000000000000000000815260040161140890612a09565b60405180910390fd5b8260098190555081600a8190555080600b81905550505050565b6000600160008473ffffffffffffffffffffffffffffffffffffffff1673ffffffffffffffffffffffffffffffffffffffff16815260200190815260200160002060008373ffffffffffffffffffffffffffffffffffffffff1673ffffffffffffffffffffffffffffffffffffffff16815260200190815260200160002054905092915050565b6114ba611664565b73ffffffffffffffffffffffffffffffffffffffff166114d8610b29565b73ffffffffffffffffffffffffffffffffffffffff161461152e576040517f08c379a000000000000000000000000000000000000000000000000000000000815260040161152590612a09565b60405180910390fd5b600073ffffffffffffffffffffffffffffffffffffffff168173ffffffffffffffffffffffffffffffffffffffff16141561159e576040517f08c379a000000000000000000000000000000000000000000000000000000000815260040161159590612969565b60405180910390fd5b8073ffffffffffffffffffffffffffffffffffffffff16600560009054906101000a900473ffffffffffffffffffffffffffffffffffffffff1673ffffffffffffffffffffffffffffffffffffffff167f8be0079c531659141344cd1fd0a4f28419497f9722a3daafe3b4186f6b6457e060405160405180910390a380600560006101000a81548173ffffffffffffffffffffffffffffffffffffffff021916908373ffffffffffffffffffffffffffffffffffffffff16021790555050565b60095481565b600033905090565b600073ffffffffffffffffffffffffffffffffffffffff168373ffffffffffffffffffffffffffffffffffffffff1614156116dc576040517f08c379a00000000000000000000000000000000000000000000000000000000081526004016116d390612a89565b60405180910390fd5b600073ffffffffffffffffffffffffffffffffffffffff168273ffffffffffffffffffffffffffffffffffffffff16141561174c576040517f08c379a000000000000000000000000000000000000000000000000000000000815260040161174390612989565b60405180910390fd5b80600160008573ffffffffffffffffffffffffffffffffffffffff1673ffffffffffffffffffffffffffffffffffffffff16815260200190815260200160002060008473ffffffffffffffffffffffffffffffffffffffff1673ffffffffffffffffffffffffffffffffffffffff168152602001908152602001600020819055508173ffffffffffffffffffffffffffffffffffffffff168373ffffffffffffffffffffffffffffffffffffffff167f8c5be1e5ebec7d5bd14f71427d1e84f3dd0314c0f7b2291e5b200ac8c7c3b9258360405161182a9190612b09565b60405180910390a3505050565b6000806000611878611855600b546064611d2d90919063ffffffff16565b61186a60095487611d2d90919063ffffffff16565b611d4390919063ffffffff16565b91506118b6611893600b546064611d2d90919063ffffffff16565b6118a8600a5487611d2d90919063ffffffff16565b611d4390919063ffffffff16565b90506118dd816118cf8487611d5990919063ffffffff16565b611d5990919063ffffffff16565b92509193909250565b611902846118fd8385611d6f90919063ffffffff16565b611d85565b61190c8382611f59565b8273ffffffffffffffffffffffffffffffffffffffff1663fff6cae96040518163ffffffff1660e01b8152600401600060405180830381600087803b15801561195457600080fd5b505af1158015611968573d6000803e3d6000fd5b505050507f347663a2a2ca9a595e722b1e566f0a69ff1f18476c56744afe46e8b87cadcac584838360405161199f939291906128b5565b60405180910390a150505050565b60006119ba848484611aae565b6000600160008673ffffffffffffffffffffffffffffffffffffffff1673ffffffffffffffffffffffffffffffffffffffff1681526020019081526020016000206000611a05611664565b73ffffffffffffffffffffffffffffffffffffffff1673ffffffffffffffffffffffffffffffffffffffff16815260200190815260200160002054905082811015611a85576040517f08c379a0000000000000000000000000000000000000000000000000000000008152600401611a7c906129e9565b60405180910390fd5b611aa285611a91611664565b8584611a9d9190612c3c565b61166c565b60019150509392505050565b600073ffffffffffffffffffffffffffffffffffffffff168373ffffffffffffffffffffffffffffffffffffffff161415611b1e576040517f08c379a0000000000000000000000000000000000000000000000000000000008152600401611b1590612a69565b60405180910390fd5b600073ffffffffffffffffffffffffffffffffffffffff168273ffffffffffffffffffffffffffffffffffffffff161415611b8e576040517f08c379a0000000000000000000000000000000000000000000000000000000008152600401611b8590612929565b60405180910390fd5b611b998383836120ad565b60008060008573ffffffffffffffffffffffffffffffffffffffff1673ffffffffffffffffffffffffffffffffffffffff16815260200190815260200160002054905081811015611c1f576040517f08c379a0000000000000000000000000000000000000000000000000000000008152600401611c16906129c9565b60405180910390fd5b8181611c2b9190612c3c565b6000808673ffffffffffffffffffffffffffffffffffffffff1673ffffffffffffffffffffffffffffffffffffffff16815260200190815260200160002081905550816000808573ffffffffffffffffffffffffffffffffffffffff1673ffffffffffffffffffffffffffffffffffffffff1681526020019081526020016000206000828254611cbb9190612b5b565b925050819055508273ffffffffffffffffffffffffffffffffffffffff168473ffffffffffffffffffffffffffffffffffffffff167fddf252ad1be2c89b69c2b068fc378daa952ba7f163c4a11628f55a4df523b3ef84604051611d1f9190612b09565b60405180910390a350505050565b60008183611d3b9190612be2565b905092915050565b60008183611d519190612bb1565b905092915050565b60008183611d679190612c3c565b905092915050565b60008183611d7d9190612b5b565b905092915050565b600073ffffffffffffffffffffffffffffffffffffffff168273ffffffffffffffffffffffffffffffffffffffff161415611df5576040517f08c379a0000000000000000000000000000000000000000000000000000000008152600401611dec90612a49565b60405180910390fd5b611e01826000836120ad565b60008060008473ffffffffffffffffffffffffffffffffffffffff1673ffffffffffffffffffffffffffffffffffffffff16815260200190815260200160002054905081811015611e87576040517f08c379a0000000000000000000000000000000000000000000000000000000008152600401611e7e90612949565b60405180910390fd5b8181611e939190612c3c565b6000808573ffffffffffffffffffffffffffffffffffffffff1673ffffffffffffffffffffffffffffffffffffffff168152602001908152602001600020819055508160026000828254611ee79190612c3c565b92505081905550600073ffffffffffffffffffffffffffffffffffffffff168373ffffffffffffffffffffffffffffffffffffffff167fddf252ad1be2c89b69c2b068fc378daa952ba7f163c4a11628f55a4df523b3ef84604051611f4c9190612b09565b60405180910390a3505050565b600073ffffffffffffffffffffffffffffffffffffffff168273ffffffffffffffffffffffffffffffffffffffff161415611fc9576040517f08c379a0000000000000000000000000000000000000000000000000000000008152600401611fc090612ae9565b60405180910390fd5b611fd5600083836120ad565b8060026000828254611fe79190612b5b565b92505081905550806000808473ffffffffffffffffffffffffffffffffffffffff1673ffffffffffffffffffffffffffffffffffffffff168152602001908152602001600020600082825461203c9190612b5b565b925050819055508173ffffffffffffffffffffffffffffffffffffffff16600073ffffffffffffffffffffffffffffffffffffffff167fddf252ad1be2c89b69c2b068fc378daa952ba7f163c4a11628f55a4df523b3ef836040516120a19190612b09565b60405180910390a35050565b505050565b6000813590506120c181612dc8565b92915050565b6000815190506120d681612dc8565b92915050565b6000813590506120eb81612ddf565b92915050565b60008135905061210081612df6565b92915050565b60006020828403121561211857600080fd5b6000612126848285016120b2565b91505092915050565b60006020828403121561214157600080fd5b600061214f848285016120c7565b91505092915050565b6000806040838503121561216b57600080fd5b6000612179858286016120b2565b925050602061218a858286016120b2565b9150509250929050565b6000806000606084860312156121a957600080fd5b60006121b7868287016120b2565b93505060206121c8868287016120b2565b92505060406121d9868287016120f1565b9150509250925092565b600080604083850312156121f657600080fd5b6000612204858286016120b2565b9250506020612215858286016120f1565b9150509250929050565b60006020828403121561223157600080fd5b600061223f848285016120dc565b91505092915050565b60006020828403121561225a57600080fd5b6000612268848285016120f1565b91505092915050565b60008060006060848603121561228657600080fd5b6000612294868287016120f1565b93505060206122a5868287016120f1565b92505060406122b6868287016120f1565b9150509250925092565b6122c981612c70565b82525050565b6122d881612c82565b82525050565b60006122e982612b3f565b6122f38185612b4a565b9350612303818560208601612cc5565b61230c81612db7565b840191505092915050565b6000612324602383612b4a565b91507f45524332303a207472616e7366657220746f20746865207a65726f206164647260008301527f65737300000000000000000000000000000000000000000000000000000000006020830152604082019050919050565b600061238a602283612b4a565b91507f45524332303a206275726e20616d6f756e7420657863656564732062616c616e60008301527f63650000000000000000000000000000000000000000000000000000000000006020830152604082019050919050565b60006123f0602683612b4a565b91507f4f776e61626c653a206e6577206f776e657220697320746865207a65726f206160008301527f64647265737300000000000000000000000000000000000000000000000000006020830152604082019050919050565b6000612456602283612b4a565b91507f45524332303a20617070726f766520746f20746865207a65726f20616464726560008301527f73730000000000000000000000000000000000000000000000000000000000006020830152604082019050919050565b60006124bc601083612b4a565b91507f497320416c7265616479204164646564000000000000000000000000000000006000830152602082019050919050565b60006124fc602683612b4a565b91507f45524332303a207472616e7366657220616d6f756e742065786365656473206260008301527f616c616e636500000000000000000000000000000000000000000000000000006020830152604082019050919050565b6000612562602883612b4a565b91507f45524332303a207472616e7366657220616d6f756e742065786365656473206160008301527f6c6c6f77616e63650000000000000000000000000000000000000000000000006020830152604082019050919050565b60006125c8602083612b4a565b91507f4f776e61626c653a2063616c6c6572206973206e6f7420746865206f776e65726000830152602082019050919050565b6000612608601e83612b4a565b91507f526f757465722043616e27742042652041205a65726f204164647265737300006000830152602082019050919050565b6000612648602183612b4a565b91507f45524332303a206275726e2066726f6d20746865207a65726f2061646472657360008301527f73000000000000000000000000000000000000000000000000000000000000006020830152604082019050919050565b60006126ae602583612b4a565b91507f45524332303a207472616e736665722066726f6d20746865207a65726f20616460008301527f64726573730000000000000000000000000000000000000000000000000000006020830152604082019050919050565b6000612714602483612b4a565b91507f45524332303a20617070726f76652066726f6d20746865207a65726f2061646460008301527f72657373000000000000000000000000000000000000000000000000000000006020830152604082019050919050565b600061277a602583612b4a565b91507f45524332303a2064656372656173656420616c6c6f77616e63652062656c6f7760008301527f207a65726f0000000000000000000000000000000000000000000000000000006020830152604082019050919050565b60006127e0600d83612b4a565b91507f496e76616c696420496e646578000000000000000000000000000000000000006000830152602082019050919050565b6000612820601f83612b4a565b91507f45524332303a206d696e7420746f20746865207a65726f2061646472657373006000830152602082019050919050565b61285c81612cae565b82525050565b61286b81612cb8565b82525050565b600060208201905061288660008301846122c0565b92915050565b60006040820190506128a160008301856122c0565b6128ae60208301846122c0565b9392505050565b60006060820190506128ca60008301866122c0565b6128d76020830185612853565b6128e46040830184612853565b949350505050565b600060208201905061290160008301846122cf565b92915050565b6000602082019050818103600083015261292181846122de565b905092915050565b6000602082019050818103600083015261294281612317565b9050919050565b600060208201905081810360008301526129628161237d565b9050919050565b60006020820190508181036000830152612982816123e3565b9050919050565b600060208201905081810360008301526129a281612449565b9050919050565b600060208201905081810360008301526129c2816124af565b9050919050565b600060208201905081810360008301526129e2816124ef565b9050919050565b60006020820190508181036000830152612a0281612555565b9050919050565b60006020820190508181036000830152612a22816125bb565b9050919050565b60006020820190508181036000830152612a42816125fb565b9050919050565b60006020820190508181036000830152612a628161263b565b9050919050565b60006020820190508181036000830152612a82816126a1565b9050919050565b60006020820190508181036000830152612aa281612707565b9050919050565b60006020820190508181036000830152612ac28161276d565b9050919050565b60006020820190508181036000830152612ae2816127d3565b9050919050565b60006020820190508181036000830152612b0281612813565b9050919050565b6000602082019050612b1e6000830184612853565b92915050565b6000602082019050612b396000830184612862565b92915050565b600081519050919050565b600082825260208201905092915050565b6000612b6682612cae565b9150612b7183612cae565b9250827fffffffffffffffffffffffffffffffffffffffffffffffffffffffffffffffff03821115612ba657612ba5612d2a565b5b828201905092915050565b6000612bbc82612cae565b9150612bc783612cae565b925082612bd757612bd6612d59565b5b828204905092915050565b6000612bed82612cae565b9150612bf883612cae565b9250817fffffffffffffffffffffffffffffffffffffffffffffffffffffffffffffffff0483118215151615612c3157612c30612d2a565b5b828202905092915050565b6000612c4782612cae565b9150612c5283612cae565b925082821015612c6557612c64612d2a565b5b828203905092915050565b6000612c7b82612c8e565b9050919050565b60008115159050919050565b600073ffffffffffffffffffffffffffffffffffffffff82169050919050565b6000819050919050565b600060ff82169050919050565b60005b83811015612ce3578082015181840152602081019050612cc8565b83811115612cf2576000848401525b50505050565b60006002820490506001821680612d1057607f821691505b60208210811415612d2457612d23612d88565b5b50919050565b7f4e487b7100000000000000000000000000000000000000000000000000000000600052601160045260246000fd5b7f4e487b7100000000000000000000000000000000000000000000000000000000600052601260045260246000fd5b7f4e487b7100000000000000000000000000000000000000000000000000000000600052602260045260246000fd5b6000601f19601f8301169050919050565b612dd181612c70565b8114612ddc57600080fd5b50565b612de881612c82565b8114612df357600080fd5b50565b612dff81612cae565b8114612e0a57600080fd5b5056fea2646970667358221220f5a8d869ecac36397ef346f78ec8451d0a9d6fb24f103dfb9d7000e804676e3e64736f6c63430008000033",
  "immutableReferences": {},
  "source": "// SPDX-License-Identifier: MIT\r\npragma solidity ^0.8.0;\r\n\r\nimport \"@openzeppelin/contracts/utils/math/SafeMath.sol\";\r\nimport \"@openzeppelin/contracts/access/Ownable.sol\";\r\nimport \"@openzeppelin/contracts/token/ERC20/ERC20.sol\";\r\n\r\ninterface Pair {\r\n    \r\n    function sync() external;\r\n\r\n}\r\n\r\ninterface Factory {\r\n\r\n    function createPair(address tokenA, address tokenB) external returns (address pair);\r\n    function getPair(address tokenA, address tokenB) external view returns (address pair);\r\n\r\n}\r\n\r\ninterface Router {\r\n    \r\n    function factory() external pure returns (address);\r\n    function WETH() external pure returns (address);\r\n\r\n}\r\n\r\ncontract TeenDoge is ERC20, Ownable {\r\n\r\n    using SafeMath for uint256;\r\n\r\n    bool public isFeesEnabled = false;\r\n    address[] public routers;\r\n    mapping(address => bool) public isValidRouter;\r\n    mapping(address => bool) public isValidPair;\r\n    uint256 public burnFee = 125;\r\n    uint256 public liquidityFee = 125;\r\n    uint256 public feeDivider = 100;\r\n\r\n    event BurnAndLiquidityFee(address spender, uint256 burnFee, uint256 liquidityFee);\r\n    event NewExchangeAdded(address routerAddress, address pairAddress);\r\n\r\n    constructor () ERC20(\"TeenDoge\", \"TDOGE\") {\r\n\r\n        _mint(msg.sender, 100000000 * (10 ** uint256(decimals())));\r\n\r\n        addARouter(0x9Ac64Cc6e4415144C455BD8E4837Fea55603e5c3);\r\n\r\n    }\r\n\r\n    function transferFrom(address sender, address recipient, uint256 amount) public override returns(bool) {\r\n\r\n        if(isFeesEnabled && isValidPair[recipient]) {\r\n            uint256 _bFee = 0;\r\n            uint256 _lFee = 0;\r\n\r\n            (amount, _bFee, _lFee) = _feeSeparator(amount);\r\n\r\n            _actionOnFee(sender, recipient, _bFee, _lFee);\r\n        }\r\n\r\n        return super.transferFrom(sender, recipient, amount);\r\n    }\r\n\r\n    function setFees(uint256 _bFee, uint256 _lFee, uint256 _fDivider) public onlyOwner {\r\n        burnFee = _bFee;\r\n        liquidityFee = _lFee;\r\n        feeDivider = _fDivider;\r\n    }\r\n\r\n    function setFeesEnabled(bool val) public onlyOwner {\r\n        isFeesEnabled = val;\r\n    }\r\n\r\n    function addARouter(address _routerAddress) public onlyOwner {\r\n        require(_routerAddress != address(0), \"Router Can't Be A Zero Address\");\r\n        require(!isValidRouter[_routerAddress], \"Is Already Added\");\r\n\r\n        Router _router = Router(_routerAddress);\r\n        Factory _factory = Factory(_router.factory());\r\n        address _pairAddress = _factory.getPair(address(this), _router.WETH());\r\n        if(_pairAddress == address(0)) {\r\n            _pairAddress = _factory.createPair(address(this), _router.WETH());\r\n        }\r\n        Pair _pair = Pair(_pairAddress);\r\n\r\n        routers.push(_routerAddress);\r\n\r\n        isValidRouter[address(_router)] = true;\r\n        isValidPair[address(_pair)] = true;\r\n\r\n        emit NewExchangeAdded(_routerAddress, address(_pair));\r\n    }\r\n\r\n    function getPairs(uint256 _index) public view returns(address) {\r\n        require(_index < routers.length, \"Invalid Index\");\r\n\r\n        Router _router = Router(routers[_index]);\r\n        return Factory(_router.factory()).getPair(address(this), _router.WETH());\r\n    }\r\n\r\n    function _feeSeparator(uint256 amount) internal view returns(uint256 _amount, uint256 _bFee, uint256 _lFee) {\r\n        _bFee = amount.mul(burnFee).div(uint256(100).mul(feeDivider));\r\n        _lFee = amount.mul(liquidityFee).div(uint256(100).mul(feeDivider));\r\n        _amount = amount.sub(_bFee).sub(_lFee);\r\n    }\r\n\r\n    function _actionOnFee(address _sender, address _recipient, uint256 _bFee, uint256 _lFee) internal {\r\n        _burn(_sender, _bFee.add(_lFee));\r\n        _mint(_recipient, _lFee);\r\n        Pair(_recipient).sync();\r\n\r\n        emit BurnAndLiquidityFee(_sender, _bFee, _lFee);\r\n    }\r\n\r\n}",
  "sourcePath": "C:/Users/sudip/Desktop/RealProjects/JIzzRocket/contracts/Token/TeenDoge.sol",
  "compiler": {
    "name": "solc",
    "version": "0.8.0+commit.c7dfd78e.Emscripten.clang"
  },
  "schemaVersion": "3.3.4",
  "updatedAt": "2021-07-03T06:12:29.859Z",
  "devdoc": {
    "kind": "dev",
    "methods": {
      "allowance(address,address)": {
        "details": "See {IERC20-allowance}."
      },
      "approve(address,uint256)": {
        "details": "See {IERC20-approve}. Requirements: - `spender` cannot be the zero address."
      },
      "balanceOf(address)": {
        "details": "See {IERC20-balanceOf}."
      },
      "decimals()": {
        "details": "Returns the number of decimals used to get its user representation. For example, if `decimals` equals `2`, a balance of `505` tokens should be displayed to a user as `5,05` (`505 / 10 ** 2`). Tokens usually opt for a value of 18, imitating the relationship between Ether and Wei. This is the value {ERC20} uses, unless this function is overridden; NOTE: This information is only used for _display_ purposes: it in no way affects any of the arithmetic of the contract, including {IERC20-balanceOf} and {IERC20-transfer}."
      },
      "decreaseAllowance(address,uint256)": {
        "details": "Atomically decreases the allowance granted to `spender` by the caller. This is an alternative to {approve} that can be used as a mitigation for problems described in {IERC20-approve}. Emits an {Approval} event indicating the updated allowance. Requirements: - `spender` cannot be the zero address. - `spender` must have allowance for the caller of at least `subtractedValue`."
      },
      "increaseAllowance(address,uint256)": {
        "details": "Atomically increases the allowance granted to `spender` by the caller. This is an alternative to {approve} that can be used as a mitigation for problems described in {IERC20-approve}. Emits an {Approval} event indicating the updated allowance. Requirements: - `spender` cannot be the zero address."
      },
      "name()": {
        "details": "Returns the name of the token."
      },
      "owner()": {
        "details": "Returns the address of the current owner."
      },
      "renounceOwnership()": {
        "details": "Leaves the contract without owner. It will not be possible to call `onlyOwner` functions anymore. Can only be called by the current owner. NOTE: Renouncing ownership will leave the contract without an owner, thereby removing any functionality that is only available to the owner."
      },
      "symbol()": {
        "details": "Returns the symbol of the token, usually a shorter version of the name."
      },
      "totalSupply()": {
        "details": "See {IERC20-totalSupply}."
      },
      "transfer(address,uint256)": {
        "details": "See {IERC20-transfer}. Requirements: - `recipient` cannot be the zero address. - the caller must have a balance of at least `amount`."
      },
      "transferFrom(address,address,uint256)": {
        "details": "See {IERC20-transferFrom}. Emits an {Approval} event indicating the updated allowance. This is not required by the EIP. See the note at the beginning of {ERC20}. Requirements: - `sender` and `recipient` cannot be the zero address. - `sender` must have a balance of at least `amount`. - the caller must have allowance for ``sender``'s tokens of at least `amount`."
      },
      "transferOwnership(address)": {
        "details": "Transfers ownership of the contract to a new account (`newOwner`). Can only be called by the current owner."
      }
    },
    "version": 1
  },
  "userdoc": {
    "kind": "user",
    "methods": {},
    "version": 1
  }
}